:100000000C9462000C948A000C948A000C948A0070
:100010000C948A000C948A000C948A000C948A0038
:100020000C948A000C948A000C948A000C948A0028
:100030000C948A000C948A000C948A000C948A0018
:100040000C94E2010C948A000C9467020C942C022C
:100050000C948A000C948A000C948A000C948A00F8
:100060000C948A000C948A000000000025002800EF
:100070002B0000000000240027002A0000000000E0
:1000800023002600290004040404040404040202DA
:100090000202020203030303030301020408102007
:1000A0004080010204081020010204081020000012
:1000B0000007000201000003040600000000000029
:1000C0000000A10211241FBECFEFD8E0DEBFCDBFDC
:1000D00011E0A0E0B1E0E0E2F8E002C005900D928E
:1000E000AC31B107D9F721E0ACE1B1E001C01D921C
:1000F000A23DB207E1F710E0C2E6D0E004C02197CC
:10010000FE010E940804C136D107C9F70E94DC0233
:100110000C9405040C9400000F931F93CF93DF936E
:10012000FC01A685B7858D01005C1F4FE801888121
:10013000998101968F739927AD014E5B5F4FEA015C
:100140002881398182179307D1F3E8012881398109
:10015000A20FB31F6C93A685B785A05CBF4F119605
:100160009C938E93A689B7892C9181E090E0078CAF
:1001700002C0880F991F0A94E2F7822B8C9381E0CA
:1001800081A30488F589E02D80818064808381E0EB
:1001900090E0DF91CF911F910F910895FC0181A113
:1001A000882329F0A489B5898C9186FFFBCF11A201
:1001B0000895FC01A485B585FD01E05CFF4F208119
:1001C00031813296808191812817390779F08081B9
:1001D0009181A80FB91F8C91208131812F5F3F4FF2
:1001E0002F7333273183208390E008958FEF9FEFA3
:1001F0000895DC011C96ED91FC911D97DF01A05C38
:10020000BF4F2D913C91119712968D919C91119712
:100210002817390739F08D919C91E80FF91F8081DB
:1002200090E008958FEF9FEF0895FC0124853585B8
:10023000F901E05CFF4F808191813296208131810C
:10024000821B930B8F739927089580EB91E00C9498
:1002500015010895CF92DF92EF92FF920F931F93B3
:10026000CF93DF936C01EB017B01E40EF51E00E000
:1002700010E0CE15DF0561F06991D601ED91FC919A
:100280000190F081E02DC6010995080F191FF1CFEB
:10029000C801DF91CF911F910F91FF90EF90DF90F8
:1002A000CF900895833081F028F4813099F0823026
:1002B000A1F008958630A9F08730B9F08430D1F4E8
:1002C000809180008F7D03C0809180008F77809324
:1002D0008000089584B58F7702C084B58F7D84BD7A
:1002E00008958091B0008F7703C08091B0008F7D1A
:1002F0008093B00008951F93CF93DF93282F30E0B1
:10030000F901E255FF4F8491F901E656FF4FD49170
:10031000F901EA57FF4FC491CC23C9F0162F811180
:100320000E945201EC2FF0E0EE0FFF1FE859FF4F43
:10033000A591B4918FB7F894111105C09C91ED2F40
:10034000E095E92302C0EC91ED2BEC938FBFDF9198
:10035000CF911F9108950F931F93CF93DF93009731
:1003600079F0FC0101900020E9F73197AF01481BBB
:10037000590BBC0180EB91E00E942A01EC0102C004
:10038000C0E0D0E0E091B001F091B1010190F081C6
:10039000E02D6DE080EB91E009958C01E091B001DA
:1003A000F091B1010190F081E02D6AE080EB91E0E5
:1003B0000995C00FD11F8C0F9D1FDF91CF911F9109
:1003C0000F9108951F920F920FB60F9211242F9341
:1003D0003F938F939F93AF93BF938091AC01909184
:1003E000AD01A091AE01B091AF013091AB0123E01E
:1003F000230F2D3720F40196A11DB11D05C026E85D
:10040000230F0296A11DB11D2093AB018093AC0177
:100410009093AD01A093AE01B093AF018091A7017D
:100420009091A801A091A901B091AA010196A11DE6
:10043000B11D8093A7019093A801A093A901B09347
:10044000AA01BF91AF919F918F913F912F910F90F2
:100450000FBE0F901F9018951F920F920FB60F921C
:1004600011242F933F938F939F93EF93FF932091AA
:100470005F013091600180916101909162012817C4
:10048000390731F48091C1008F7D8093C10014C081
:10049000E0916101F0916201E15EFE4F2081809167
:1004A00061019091620101968F7399279093620187
:1004B000809361012093C600FF91EF919F918F91EE
:1004C0003F912F910F900FBE0F901F9018951F9284
:1004D0000F920FB60F9211242F934F935F938F9328
:1004E0009F93EF93FF938091C00082FD1CC02091E9
:1004F000C6008091A3019091A40101968F73992762
:100500004091A5015091A6018417950771F0E091E3
:10051000A301F091A401ED59FE4F20839093A40113
:100520008093A30102C08091C600FF91EF919F913B
:100530008F915F914F912F910F900FBE0F901F9051
:100540001895E0EBF1E01382128288EE93E0A0E0D0
:10055000B0E084839583A683B78384E091E09183A0
:10056000808383E691E0958784878FE191E0978788
:10057000868785EC90E0918B808B84EC90E0938B68
:10058000828B80EC90E0958B848B81EC90E0978B54
:10059000868B82EC90E0918F808F86EC90E0938F39
:1005A000828F84E0848F83E0858F87E0868F85E06B
:1005B000878F81E080A30895789484B5826084BD9C
:1005C00084B5816084BD85B5826085BD85B5816057
:1005D00085BD80916E00816080936E0010928100D5
:1005E0008091810082608093810080918100816090
:1005F0008093810080918000816080938000809151
:10060000B10084608093B1008091B00081608093DC
:10061000B00080917A00846080937A0080917A00A3
:10062000826080937A0080917A00816080937A0062
:1006300080917A00806880937A001092C100E091E6
:10064000C401F091C50181E090E09C010090D001CF
:1006500002C0220F331F0A94E2F72083E091C00109
:10066000F091C1011082E091C201F091C3012FEC21
:1006700020831092D101E091C601F091C701408121
:100680009C010090CC0102C0220F331F0A94E2F7B4
:10069000242B2083E091C601F091C70140819C0189
:1006A0000090CD0102C0220F331F0A94E2F7242BE1
:1006B0002083E091C601F091C70140819C01009028
:1006C000CE0102C0220F331F0A94E2F7242B2083AD
:1006D000E091C601F091C70120810090CF0102C0D6
:1006E000880F991F0A94E2F7809582238083E7EAB6
:1006F000F0E02491E3E9F0E08491882399F090E020
:10070000880F991FFC01EE58FF4FA591B491FC0191
:10071000E859FF4F859194918FB7F894EC91E22BB3
:10072000EC938FBFCCE9D0E0FE01249108E810E003
:10073000F80184918823C9F090E0880F991FFC018B
:10074000EE58FF4FA591B49188599F4FFC014591F8
:1007500054913FB7F8949C91822F809598239C9355
:10076000FA019081892380833FBF30EBE32E30E094
:10077000F32E80EB91E00E941501892B31F080EB84
:1007800091E00E94D90080931E0180911E0188345F
:1007900011F461E001C060E08DE00E947B01F7018F
:1007A0008491FE01C490F801D490DD20A9F081115C
:1007B0000E9452018D2D90E0880F991F84589F4F01
:1007C000FC01A591B4918C91C82231E020E009F49C
:1007D00030E0832F922F02C080E090E020911C0136
:1007E00030911D012817390769F090931D018093FE
:1007F0001C01019719F480E191E002C086E191E0CB
:100800000E94AB010E942501B4CFF8940C940E0411
:10081000EE0FFF1F0590F491E02D0994F894FFCF9F
:10082000000000008C002A011501D900F900CE005B
:0C0830006C69676874006461726B000002
:00000001FF
